{
  "contractName": "CloneFactory",
  "abi": [
    {
      "inputs": [
        {
          "internalType": "address",
          "name": "prototype",
          "type": "address"
        }
      ],
      "name": "clone",
      "outputs": [
        {
          "internalType": "address",
          "name": "proxy",
          "type": "address"
        }
      ],
      "stateMutability": "nonpayable",
      "type": "function"
    }
  ],
  "bytecode": "0x608060405234801561001057600080fd5b5061010e806100206000396000f3fe6080604052348015600f57600080fd5b506004361060285760003560e01c80638124b78e14602d575b600080fd5b603c603836600460aa565b6058565b6040516001600160a01b03909116815260200160405180910390f35b6000808260601b9050604051733d602d80600a3d3981f3363d3d373d3d3d363d7360601b81528160148201526e5af43d82803e903d91602b57fd5bf360881b60288201526037816000f0949350505050565b60006020828403121560bb57600080fd5b81356001600160a01b038116811460d157600080fd5b939250505056fea26469706673582212205cf41f97ee61ab6b2b82afd3a517ce9d373361f4ac2f5c13da81a904eb3505bd64736f6c63430008120033",
  "immutableReferences": {},
  "source": "/*\n\n    Copyright 2020 DODO ZOO.\n    SPDX-License-Identifier: Apache-2.0\n\n*/\n\n// pragma solidity 0.6.9;\npragma solidity 0.8.18;\npragma experimental ABIEncoderV2;\n\ninterface ICloneFactory {\n    function clone(address prototype) external returns (address proxy);\n}\n\n// introduction of proxy mode design: https://docs.openzeppelin.com/upgrades/2.8/\n// minimum implementation of transparent proxy: https://eips.ethereum.org/EIPS/eip-1167\n\ncontract CloneFactory is ICloneFactory {\n    function clone(address prototype) external override returns (address proxy) {\n        bytes20 targetBytes = bytes20(prototype);\n        assembly {\n            let clone := mload(0x40)\n            mstore(clone, 0x3d602d80600a3d3981f3363d3d373d3d3d363d73000000000000000000000000)\n            mstore(add(clone, 0x14), targetBytes)\n            mstore(\n                add(clone, 0x28),\n                0x5af43d82803e903d91602b57fd5bf30000000000000000000000000000000000\n            )\n            proxy := create(0, clone, 0x37)\n        }\n        return proxy;\n    }\n}\n",
  "sourcePath": "/home/richard/EVM_Courses/Truffle_Web_ERC20/truffle/contracts/CloneFactory.sol",
  "compiler": {
    "name": "solc",
    "version": "0.8.18+commit.87f61d96.Emscripten.clang"
  },
  "schemaVersion": "3.4.13",
  "updatedAt": "2023-04-24T23:35:25.453Z",
  "networkType": "ethereum",
  "devdoc": {
    "kind": "dev",
    "methods": {},
    "version": 1
  },
  "userdoc": {
    "kind": "user",
    "methods": {},
    "version": 1
  }
}