{
  "contractName": "CustomERC20",
  "abi": [
    {
      "anonymous": false,
      "inputs": [
        {
          "indexed": true,
          "internalType": "address",
          "name": "owner",
          "type": "address"
        },
        {
          "indexed": true,
          "internalType": "address",
          "name": "spender",
          "type": "address"
        },
        {
          "indexed": false,
          "internalType": "uint256",
          "name": "amount",
          "type": "uint256"
        }
      ],
      "name": "Approval",
      "type": "event"
    },
    {
      "anonymous": false,
      "inputs": [
        {
          "indexed": false,
          "internalType": "address",
          "name": "oldTeam",
          "type": "address"
        },
        {
          "indexed": false,
          "internalType": "address",
          "name": "newTeam",
          "type": "address"
        }
      ],
      "name": "ChangeTeam",
      "type": "event"
    },
    {
      "anonymous": false,
      "inputs": [
        {
          "indexed": true,
          "internalType": "address",
          "name": "previousOwner",
          "type": "address"
        },
        {
          "indexed": true,
          "internalType": "address",
          "name": "newOwner",
          "type": "address"
        }
      ],
      "name": "OwnershipTransferPrepared",
      "type": "event"
    },
    {
      "anonymous": false,
      "inputs": [
        {
          "indexed": true,
          "internalType": "address",
          "name": "previousOwner",
          "type": "address"
        },
        {
          "indexed": true,
          "internalType": "address",
          "name": "newOwner",
          "type": "address"
        }
      ],
      "name": "OwnershipTransferred",
      "type": "event"
    },
    {
      "anonymous": false,
      "inputs": [
        {
          "indexed": true,
          "internalType": "address",
          "name": "from",
          "type": "address"
        },
        {
          "indexed": true,
          "internalType": "address",
          "name": "to",
          "type": "address"
        },
        {
          "indexed": false,
          "internalType": "uint256",
          "name": "amount",
          "type": "uint256"
        }
      ],
      "name": "Transfer",
      "type": "event"
    },
    {
      "inputs": [],
      "name": "_NEW_OWNER_",
      "outputs": [
        {
          "internalType": "address",
          "name": "",
          "type": "address"
        }
      ],
      "stateMutability": "view",
      "type": "function",
      "constant": true
    },
    {
      "inputs": [],
      "name": "_OWNER_",
      "outputs": [
        {
          "internalType": "address",
          "name": "",
          "type": "address"
        }
      ],
      "stateMutability": "view",
      "type": "function",
      "constant": true
    },
    {
      "inputs": [],
      "name": "claimOwnership",
      "outputs": [],
      "stateMutability": "nonpayable",
      "type": "function"
    },
    {
      "inputs": [],
      "name": "decimals",
      "outputs": [
        {
          "internalType": "uint8",
          "name": "",
          "type": "uint8"
        }
      ],
      "stateMutability": "view",
      "type": "function",
      "constant": true
    },
    {
      "inputs": [
        {
          "internalType": "address",
          "name": "newOwner",
          "type": "address"
        }
      ],
      "name": "initOwner",
      "outputs": [],
      "stateMutability": "nonpayable",
      "type": "function"
    },
    {
      "inputs": [],
      "name": "name",
      "outputs": [
        {
          "internalType": "string",
          "name": "",
          "type": "string"
        }
      ],
      "stateMutability": "view",
      "type": "function",
      "constant": true
    },
    {
      "inputs": [],
      "name": "symbol",
      "outputs": [
        {
          "internalType": "string",
          "name": "",
          "type": "string"
        }
      ],
      "stateMutability": "view",
      "type": "function",
      "constant": true
    },
    {
      "inputs": [],
      "name": "team",
      "outputs": [
        {
          "internalType": "address",
          "name": "",
          "type": "address"
        }
      ],
      "stateMutability": "view",
      "type": "function",
      "constant": true
    },
    {
      "inputs": [],
      "name": "totalSupply",
      "outputs": [
        {
          "internalType": "uint256",
          "name": "",
          "type": "uint256"
        }
      ],
      "stateMutability": "view",
      "type": "function",
      "constant": true
    },
    {
      "inputs": [],
      "name": "tradeBurnRatio",
      "outputs": [
        {
          "internalType": "uint256",
          "name": "",
          "type": "uint256"
        }
      ],
      "stateMutability": "view",
      "type": "function",
      "constant": true
    },
    {
      "inputs": [],
      "name": "tradeFeeRatio",
      "outputs": [
        {
          "internalType": "uint256",
          "name": "",
          "type": "uint256"
        }
      ],
      "stateMutability": "view",
      "type": "function",
      "constant": true
    },
    {
      "inputs": [
        {
          "internalType": "address",
          "name": "newOwner",
          "type": "address"
        }
      ],
      "name": "transferOwnership",
      "outputs": [],
      "stateMutability": "nonpayable",
      "type": "function"
    },
    {
      "inputs": [
        {
          "internalType": "address",
          "name": "_creator",
          "type": "address"
        },
        {
          "internalType": "uint256",
          "name": "_totalSupply",
          "type": "uint256"
        },
        {
          "internalType": "string",
          "name": "_name",
          "type": "string"
        },
        {
          "internalType": "string",
          "name": "_symbol",
          "type": "string"
        },
        {
          "internalType": "uint8",
          "name": "_decimals",
          "type": "uint8"
        },
        {
          "internalType": "uint256",
          "name": "_tradeBurnRatio",
          "type": "uint256"
        },
        {
          "internalType": "uint256",
          "name": "_tradeFeeRatio",
          "type": "uint256"
        },
        {
          "internalType": "address",
          "name": "_team",
          "type": "address"
        }
      ],
      "name": "init",
      "outputs": [],
      "stateMutability": "nonpayable",
      "type": "function"
    },
    {
      "inputs": [
        {
          "internalType": "address",
          "name": "to",
          "type": "address"
        },
        {
          "internalType": "uint256",
          "name": "amount",
          "type": "uint256"
        }
      ],
      "name": "transfer",
      "outputs": [
        {
          "internalType": "bool",
          "name": "",
          "type": "bool"
        }
      ],
      "stateMutability": "nonpayable",
      "type": "function"
    },
    {
      "inputs": [
        {
          "internalType": "address",
          "name": "owner",
          "type": "address"
        }
      ],
      "name": "balanceOf",
      "outputs": [
        {
          "internalType": "uint256",
          "name": "balance",
          "type": "uint256"
        }
      ],
      "stateMutability": "view",
      "type": "function",
      "constant": true
    },
    {
      "inputs": [
        {
          "internalType": "address",
          "name": "from",
          "type": "address"
        },
        {
          "internalType": "address",
          "name": "to",
          "type": "address"
        },
        {
          "internalType": "uint256",
          "name": "amount",
          "type": "uint256"
        }
      ],
      "name": "transferFrom",
      "outputs": [
        {
          "internalType": "bool",
          "name": "",
          "type": "bool"
        }
      ],
      "stateMutability": "nonpayable",
      "type": "function"
    },
    {
      "inputs": [
        {
          "internalType": "address",
          "name": "spender",
          "type": "address"
        },
        {
          "internalType": "uint256",
          "name": "amount",
          "type": "uint256"
        }
      ],
      "name": "approve",
      "outputs": [
        {
          "internalType": "bool",
          "name": "",
          "type": "bool"
        }
      ],
      "stateMutability": "nonpayable",
      "type": "function"
    },
    {
      "inputs": [
        {
          "internalType": "address",
          "name": "owner",
          "type": "address"
        },
        {
          "internalType": "address",
          "name": "spender",
          "type": "address"
        }
      ],
      "name": "allowance",
      "outputs": [
        {
          "internalType": "uint256",
          "name": "",
          "type": "uint256"
        }
      ],
      "stateMutability": "view",
      "type": "function",
      "constant": true
    },
    {
      "inputs": [
        {
          "internalType": "address",
          "name": "newTeam",
          "type": "address"
        }
      ],
      "name": "changeTeamAccount",
      "outputs": [],
      "stateMutability": "nonpayable",
      "type": "function"
    },
    {
      "inputs": [
        {
          "internalType": "address",
          "name": "zeroAddress",
          "type": "address"
        }
      ],
      "name": "abandonOwnership",
      "outputs": [],
      "stateMutability": "nonpayable",
      "type": "function"
    }
  ],
  "bytecode": "0x608060405234801561001057600080fd5b50611300806100206000396000f3fe608060405234801561001057600080fd5b506004361061012c5760003560e01c806370a08231116100ad578063a9059cbb11610071578063a9059cbb14610289578063b4c50ff41461029c578063dd62ed3e146102af578063e59850f7146102e8578063f2fde38b146102f157600080fd5b806370a08231146102295780638456db151461025257806385f2aef214610265578063870c66d61461027857806395d89b411461028157600080fd5b806323b872dd116100f457806323b872dd146101c9578063313ce567146101dc5780633a625ee6146101fb5780634ca608251461020e5780634e71e0c81461022157600080fd5b806306fdde0314610131578063095ea7b31461014f5780630d0092971461017257806316048bc41461018757806318160ddd146101b2575b600080fd5b610139610304565b6040516101469190610e4d565b60405180910390f35b61016261015d366004610eb7565b610392565b6040519015158152602001610146565b610185610180366004610ee1565b6103ff565b005b60005461019a906001600160a01b031681565b6040516001600160a01b039091168152602001610146565b6101bb60055481565b604051908152602001610146565b6101626101d7366004610efc565b610487565b6003546101e99060ff1681565b60405160ff9091168152602001610146565b610185610209366004610ee1565b610558565b61018561021c366004610fdb565b610633565b610185610785565b6101bb610237366004610ee1565b6001600160a01b031660009081526009602052604090205490565b60015461019a906001600160a01b031681565b60085461019a906001600160a01b031681565b6101bb60075481565b610139610833565b610162610297366004610eb7565b610840565b6101856102aa366004610ee1565b610856565b6101bb6102bd366004611096565b6001600160a01b039182166000908152600a6020908152604080832093909416825291909152205490565b6101bb60065481565b6101856102ff366004610ee1565b610915565b60028054610311906110c9565b80601f016020809104026020016040519081016040528092919081815260200182805461033d906110c9565b801561038a5780601f1061035f5761010080835404028352916020019161038a565b820191906000526020600020905b81548152906001019060200180831161036d57829003601f168201915b505050505081565b336000818152600a602090815260408083206001600160a01b038716808552925280832085905551919290917f8c5be1e5ebec7d5bd14f71427d1e84f3dd0314c0f7b2291e5b200ac8c7c3b925906103ed9086815260200190565b60405180910390a35060015b92915050565b600154600160a01b900460ff16156104515760405162461bcd60e51b815260206004820152601060248201526f1113d113d7d25392551250531256915160821b60448201526064015b60405180910390fd5b6001805460ff60a01b1916600160a01b179055600080546001600160a01b039092166001600160a01b0319909216919091179055565b6001600160a01b0383166000908152600a602090815260408083203384529091528120548211156104f15760405162461bcd60e51b815260206004820152601460248201527308298989eae829c868abe9c9ea8be8a9c9eaa8e960631b6044820152606401610448565b6104fc84848461099a565b6001600160a01b0384166000908152600a6020908152604080832033845290915290205461052a9083610d03565b6001600160a01b0385166000908152600a602090815260408083203384529091529020555060019392505050565b6000546001600160a01b031633146105825760405162461bcd60e51b815260040161044890611103565b6000600754116105ca5760405162461bcd60e51b81526020600482015260136024820152722727aa2faa2920a222afa322a2afaa27a5a2a760691b6044820152606401610448565b600854604080516001600160a01b03928316815291831660208301527f777d534c56e5409475a0daf453d4062d4d63f108acc530af91f101587cc91adc910160405180910390a1600880546001600160a01b0319166001600160a01b0392909216919091179055565b61063c886103ff565b60026106488782611175565b5060046106558682611175565b506003805460ff191660ff861617905560058790556001600160a01b03881660009081526009602052604090208790556113888311156106d75760405162461bcd60e51b815260206004820152601860248201527f54524144455f4255524e5f524154494f5f494e56414c494400000000000000006044820152606401610448565b6113888211156107295760405162461bcd60e51b815260206004820152601760248201527f54524144455f4645455f524154494f5f494e56414c49440000000000000000006044820152606401610448565b60068390556007829055600880546001600160a01b0319166001600160a01b0383811691909117909155604051888152908916906000906000805160206112ab8339815191529060200160405180910390a35050505050505050565b6001546001600160a01b031633146107cf5760405162461bcd60e51b815260206004820152600d60248201526c494e56414c49445f434c41494d60981b6044820152606401610448565b600154600080546040516001600160a01b0393841693909116917f8be0079c531659141344cd1fd0a4f28419497f9722a3daafe3b4186f6b6457e091a360018054600080546001600160a01b03199081166001600160a01b03841617909155169055565b60048054610311906110c9565b600061084d33848461099a565b50600192915050565b6000546001600160a01b031633146108805760405162461bcd60e51b815260040161044890611103565b6001600160a01b038116156108ca5760405162461bcd60e51b815260206004820152601060248201526f4e4f545f5a45524f5f4144445245535360801b6044820152606401610448565b600080546040516001600160a01b03909116907f8be0079c531659141344cd1fd0a4f28419497f9722a3daafe3b4186f6b6457e0908390a350600080546001600160a01b0319169055565b6000546001600160a01b0316331461093f5760405162461bcd60e51b815260040161044890611103565b600080546040516001600160a01b03808516939216917fdcf55418cee3220104fef63f979ff3c4097ad240c0c43dcb33ce837748983e6291a3600180546001600160a01b0319166001600160a01b0392909216919091179055565b6001600160a01b0383166109fe5760405162461bcd60e51b815260206004820152602560248201527f45524332303a207472616e736665722066726f6d20746865207a65726f206164604482015264647265737360d81b6064820152608401610448565b6001600160a01b038216610a605760405162461bcd60e51b815260206004820152602360248201527f45524332303a207472616e7366657220746f20746865207a65726f206164647260448201526265737360e81b6064820152608401610448565b6001600160a01b038316600090815260096020526040902054811115610ad75760405162461bcd60e51b815260206004820152602660248201527f45524332303a207472616e7366657220616d6f756e7420657863656564732062604482015265616c616e636560d01b6064820152608401610448565b6001600160a01b038316600090815260096020526040902054610afa9082610d03565b6001600160a01b038416600090815260096020526040812091909155600654819015610bdc57610b41612710610b3b60065486610d5290919063ffffffff16565b90610db6565b6000805260096020527fec8156718a8372b1db44bb411437d0870f3e3790d4a08526d024ce1b0b668f6b54909250610b799083610e02565b600080805260096020527fec8156718a8372b1db44bb411437d0870f3e3790d4a08526d024ce1b0b668f6b919091556040516001600160a01b038716906000805160206112ab83398151915290610bd39086815260200190565b60405180910390a35b60075415610c7557610bff612710610b3b60075486610d5290919063ffffffff16565b6008546001600160a01b0316600090815260096020526040902054909150610c279082610e02565b600880546001600160a01b03908116600090815260096020908152604091829020949094559154915184815291811692908816916000805160206112ab833981519152910160405180910390a35b6000610c8b82610c858686610d03565b90610d03565b6001600160a01b038616600090815260096020526040902054909150610cb19082610e02565b6001600160a01b0380871660008181526009602052604090819020939093559151908816906000805160206112ab83398151915290610cf39085815260200190565b60405180910390a3505050505050565b600082821115610d415760405162461bcd60e51b815260206004820152600960248201526829aaa12fa2a92927a960b91b6044820152606401610448565b610d4b828461124b565b9392505050565b600082600003610d64575060006103f9565b6000610d70838561125e565b905082610d7d8583611275565b14610d4b5760405162461bcd60e51b815260206004820152600960248201526826aaa62fa2a92927a960b91b6044820152606401610448565b6000808211610df85760405162461bcd60e51b815260206004820152600e60248201526d2224ab24a224a723afa2a92927a960911b6044820152606401610448565b610d4b8284611275565b600080610e0f8385611297565b905083811015610d4b5760405162461bcd60e51b815260206004820152600960248201526820a2222fa2a92927a960b91b6044820152606401610448565b600060208083528351808285015260005b81811015610e7a57858101830151858201604001528201610e5e565b506000604082860101526040601f19601f8301168501019250505092915050565b80356001600160a01b0381168114610eb257600080fd5b919050565b60008060408385031215610eca57600080fd5b610ed383610e9b565b946020939093013593505050565b600060208284031215610ef357600080fd5b610d4b82610e9b565b600080600060608486031215610f1157600080fd5b610f1a84610e9b565b9250610f2860208501610e9b565b9150604084013590509250925092565b634e487b7160e01b600052604160045260246000fd5b600082601f830112610f5f57600080fd5b813567ffffffffffffffff80821115610f7a57610f7a610f38565b604051601f8301601f19908116603f01168101908282118183101715610fa257610fa2610f38565b81604052838152866020858801011115610fbb57600080fd5b836020870160208301376000602085830101528094505050505092915050565b600080600080600080600080610100898b031215610ff857600080fd5b61100189610e9b565b975060208901359650604089013567ffffffffffffffff8082111561102557600080fd5b6110318c838d01610f4e565b975060608b013591508082111561104757600080fd5b506110548b828c01610f4e565b955050608089013560ff8116811461106b57600080fd5b935060a0890135925060c0890135915061108760e08a01610e9b565b90509295985092959890939650565b600080604083850312156110a957600080fd5b6110b283610e9b565b91506110c060208401610e9b565b90509250929050565b600181811c908216806110dd57607f821691505b6020821081036110fd57634e487b7160e01b600052602260045260246000fd5b50919050565b6020808252600990820152682727aa2fa7aba722a960b91b604082015260600190565b601f82111561117057600081815260208120601f850160051c8101602086101561114d5750805b601f850160051c820191505b8181101561116c57828155600101611159565b5050505b505050565b815167ffffffffffffffff81111561118f5761118f610f38565b6111a38161119d84546110c9565b84611126565b602080601f8311600181146111d857600084156111c05750858301515b600019600386901b1c1916600185901b17855561116c565b600085815260208120601f198616915b82811015611207578886015182559484019460019091019084016111e8565b50858210156112255787850151600019600388901b60f8161c191681555b5050505050600190811b01905550565b634e487b7160e01b600052601160045260246000fd5b818103818111156103f9576103f9611235565b80820281158282048414176103f9576103f9611235565b60008261129257634e487b7160e01b600052601260045260246000fd5b500490565b808201808211156103f9576103f961123556feddf252ad1be2c89b69c2b068fc378daa952ba7f163c4a11628f55a4df523b3efa2646970667358221220f7010825914dc528f6702bca2469f8872ad4d8c1d7dafe1304380fd79023c51264736f6c63430008120033",
  "immutableReferences": {},
  "source": "// SPDX-License-Identifier: MIT\npragma solidity ^0.8.18;\n\nimport \"./lib/SafeMath.sol\";\nimport \"./lib/InitializableOwnable.sol\";\n\ncontract CustomERC20 is InitializableOwnable {\n    using SafeMath for uint256;\n\n    string public name;\n    uint8 public decimals;\n    string public symbol;\n    uint256 public totalSupply;\n\n    uint256 public tradeBurnRatio;\n    uint256 public tradeFeeRatio;\n    address public team;\n\n    mapping(address => uint256) balances;\n    mapping(address => mapping(address => uint256)) internal allowed;\n\n    event Transfer(address indexed from, address indexed to, uint256 amount);\n    event Approval(address indexed owner, address indexed spender, uint256 amount);\n    event ChangeTeam(address oldTeam, address newTeam);\n\n    function init(\n        address _creator,\n        uint256 _totalSupply,\n        string memory _name,\n        string memory _symbol,\n        uint8 _decimals,\n        uint256 _tradeBurnRatio,\n        uint256 _tradeFeeRatio,\n        address _team\n    ) public {\n        initOwner(_creator);\n        name = _name;\n        symbol = _symbol;\n        decimals = _decimals;\n        totalSupply = _totalSupply;\n        balances[_creator] = _totalSupply;\n        require(_tradeBurnRatio >= 0 && _tradeBurnRatio <= 5000, \"TRADE_BURN_RATIO_INVALID\");\n        require(_tradeFeeRatio >= 0 && _tradeFeeRatio <= 5000, \"TRADE_FEE_RATIO_INVALID\");\n        tradeBurnRatio = _tradeBurnRatio;\n        tradeFeeRatio = _tradeFeeRatio;\n        team = _team;\n        emit Transfer(address(0), _creator, _totalSupply);\n    }\n\n    function transfer(address to, uint256 amount) public returns (bool) {\n        _transfer(msg.sender,to,amount);\n        return true;\n    }\n\n    function balanceOf(address owner) public view returns (uint256 balance) {\n        return balances[owner];\n    }\n\n    function transferFrom(\n        address from,\n        address to,\n        uint256 amount\n    ) public returns (bool) {\n        require(amount <= allowed[from][msg.sender], \"ALLOWANCE_NOT_ENOUGH\");\n        _transfer(from,to,amount);\n        allowed[from][msg.sender] = allowed[from][msg.sender].sub(amount);\n        return true;\n    }\n\n    function approve(address spender, uint256 amount) public returns (bool) {\n        allowed[msg.sender][spender] = amount;\n        emit Approval(msg.sender, spender, amount);\n        return true;\n    }\n\n    function allowance(address owner, address spender) public view returns (uint256) {\n        return allowed[owner][spender];\n    }\n\n\n    function _transfer(\n        address sender,\n        address recipient,\n        uint256 amount\n    ) internal virtual {\n        require(sender != address(0), \"ERC20: transfer from the zero address\");\n        require(recipient != address(0), \"ERC20: transfer to the zero address\");\n        require(balances[sender] >= amount, \"ERC20: transfer amount exceeds balance\");\n\n        balances[sender] = balances[sender].sub(amount);\n\n        uint256 burnAmount;\n        uint256 feeAmount;\n        if(tradeBurnRatio > 0) {\n            burnAmount = amount.mul(tradeBurnRatio).div(10000);\n            balances[address(0)] = balances[address(0)].add(burnAmount);\n            emit Transfer(sender, address(0), burnAmount);\n        }\n\n        if(tradeFeeRatio > 0) {\n            feeAmount = amount.mul(tradeFeeRatio).div(10000);\n            balances[team] = balances[team].add(feeAmount);\n            emit Transfer(sender, team, feeAmount);\n        }\n        \n        uint256 receiveAmount = amount.sub(burnAmount).sub(feeAmount);\n        balances[recipient] = balances[recipient].add(receiveAmount);\n\n        emit Transfer(sender, recipient, receiveAmount);\n    }\n\n\n    //=================== Ownable ======================\n    function changeTeamAccount(address newTeam) external onlyOwner {\n        require(tradeFeeRatio > 0, \"NOT_TRADE_FEE_TOKEN\");\n        emit ChangeTeam(team,newTeam);\n        team = newTeam;\n    }\n\n    function abandonOwnership(address zeroAddress) external onlyOwner {\n        require(zeroAddress == address(0), \"NOT_ZERO_ADDRESS\");\n        emit OwnershipTransferred(_OWNER_, address(0));\n        _OWNER_ = address(0);\n    }\n}",
  "sourcePath": "/home/richard/EVM_Courses/Truffle_Web_ERC20/truffle/contracts/CustomERC20.sol",
  "compiler": {
    "name": "solc",
    "version": "0.8.18+commit.87f61d96.Emscripten.clang"
  },
  "schemaVersion": "3.4.13",
  "updatedAt": "2023-05-02T05:52:04.263Z",
  "networkType": "ethereum",
  "devdoc": {
    "kind": "dev",
    "methods": {},
    "version": 1
  },
  "userdoc": {
    "kind": "user",
    "methods": {},
    "version": 1
  }
}