{
  "contractName": "CustomMintableERC20",
  "abi": [
    {
      "anonymous": false,
      "inputs": [
        {
          "indexed": true,
          "internalType": "address",
          "name": "owner",
          "type": "address"
        },
        {
          "indexed": true,
          "internalType": "address",
          "name": "spender",
          "type": "address"
        },
        {
          "indexed": false,
          "internalType": "uint256",
          "name": "amount",
          "type": "uint256"
        }
      ],
      "name": "Approval",
      "type": "event"
    },
    {
      "anonymous": false,
      "inputs": [
        {
          "indexed": true,
          "internalType": "address",
          "name": "user",
          "type": "address"
        },
        {
          "indexed": false,
          "internalType": "uint256",
          "name": "value",
          "type": "uint256"
        }
      ],
      "name": "Burn",
      "type": "event"
    },
    {
      "anonymous": false,
      "inputs": [
        {
          "indexed": false,
          "internalType": "address",
          "name": "oldTeam",
          "type": "address"
        },
        {
          "indexed": false,
          "internalType": "address",
          "name": "newTeam",
          "type": "address"
        }
      ],
      "name": "ChangeTeam",
      "type": "event"
    },
    {
      "anonymous": false,
      "inputs": [
        {
          "indexed": true,
          "internalType": "address",
          "name": "user",
          "type": "address"
        },
        {
          "indexed": false,
          "internalType": "uint256",
          "name": "value",
          "type": "uint256"
        }
      ],
      "name": "Mint",
      "type": "event"
    },
    {
      "anonymous": false,
      "inputs": [
        {
          "indexed": true,
          "internalType": "address",
          "name": "previousOwner",
          "type": "address"
        },
        {
          "indexed": true,
          "internalType": "address",
          "name": "newOwner",
          "type": "address"
        }
      ],
      "name": "OwnershipTransferPrepared",
      "type": "event"
    },
    {
      "anonymous": false,
      "inputs": [
        {
          "indexed": true,
          "internalType": "address",
          "name": "previousOwner",
          "type": "address"
        },
        {
          "indexed": true,
          "internalType": "address",
          "name": "newOwner",
          "type": "address"
        }
      ],
      "name": "OwnershipTransferred",
      "type": "event"
    },
    {
      "anonymous": false,
      "inputs": [
        {
          "indexed": true,
          "internalType": "address",
          "name": "from",
          "type": "address"
        },
        {
          "indexed": true,
          "internalType": "address",
          "name": "to",
          "type": "address"
        },
        {
          "indexed": false,
          "internalType": "uint256",
          "name": "amount",
          "type": "uint256"
        }
      ],
      "name": "Transfer",
      "type": "event"
    },
    {
      "inputs": [],
      "name": "_NEW_OWNER_",
      "outputs": [
        {
          "internalType": "address",
          "name": "",
          "type": "address"
        }
      ],
      "stateMutability": "view",
      "type": "function",
      "constant": true
    },
    {
      "inputs": [],
      "name": "_OWNER_",
      "outputs": [
        {
          "internalType": "address",
          "name": "",
          "type": "address"
        }
      ],
      "stateMutability": "view",
      "type": "function",
      "constant": true
    },
    {
      "inputs": [],
      "name": "claimOwnership",
      "outputs": [],
      "stateMutability": "nonpayable",
      "type": "function"
    },
    {
      "inputs": [],
      "name": "decimals",
      "outputs": [
        {
          "internalType": "uint8",
          "name": "",
          "type": "uint8"
        }
      ],
      "stateMutability": "view",
      "type": "function",
      "constant": true
    },
    {
      "inputs": [
        {
          "internalType": "address",
          "name": "newOwner",
          "type": "address"
        }
      ],
      "name": "initOwner",
      "outputs": [],
      "stateMutability": "nonpayable",
      "type": "function"
    },
    {
      "inputs": [],
      "name": "name",
      "outputs": [
        {
          "internalType": "string",
          "name": "",
          "type": "string"
        }
      ],
      "stateMutability": "view",
      "type": "function",
      "constant": true
    },
    {
      "inputs": [],
      "name": "symbol",
      "outputs": [
        {
          "internalType": "string",
          "name": "",
          "type": "string"
        }
      ],
      "stateMutability": "view",
      "type": "function",
      "constant": true
    },
    {
      "inputs": [],
      "name": "team",
      "outputs": [
        {
          "internalType": "address",
          "name": "",
          "type": "address"
        }
      ],
      "stateMutability": "view",
      "type": "function",
      "constant": true
    },
    {
      "inputs": [],
      "name": "totalSupply",
      "outputs": [
        {
          "internalType": "uint256",
          "name": "",
          "type": "uint256"
        }
      ],
      "stateMutability": "view",
      "type": "function",
      "constant": true
    },
    {
      "inputs": [],
      "name": "tradeBurnRatio",
      "outputs": [
        {
          "internalType": "uint256",
          "name": "",
          "type": "uint256"
        }
      ],
      "stateMutability": "view",
      "type": "function",
      "constant": true
    },
    {
      "inputs": [],
      "name": "tradeFeeRatio",
      "outputs": [
        {
          "internalType": "uint256",
          "name": "",
          "type": "uint256"
        }
      ],
      "stateMutability": "view",
      "type": "function",
      "constant": true
    },
    {
      "inputs": [
        {
          "internalType": "address",
          "name": "newOwner",
          "type": "address"
        }
      ],
      "name": "transferOwnership",
      "outputs": [],
      "stateMutability": "nonpayable",
      "type": "function"
    },
    {
      "inputs": [
        {
          "internalType": "address",
          "name": "_creator",
          "type": "address"
        },
        {
          "internalType": "uint256",
          "name": "_initSupply",
          "type": "uint256"
        },
        {
          "internalType": "string",
          "name": "_name",
          "type": "string"
        },
        {
          "internalType": "string",
          "name": "_symbol",
          "type": "string"
        },
        {
          "internalType": "uint8",
          "name": "_decimals",
          "type": "uint8"
        },
        {
          "internalType": "uint256",
          "name": "_tradeBurnRatio",
          "type": "uint256"
        },
        {
          "internalType": "uint256",
          "name": "_tradeFeeRatio",
          "type": "uint256"
        },
        {
          "internalType": "address",
          "name": "_team",
          "type": "address"
        }
      ],
      "name": "init",
      "outputs": [],
      "stateMutability": "nonpayable",
      "type": "function"
    },
    {
      "inputs": [
        {
          "internalType": "address",
          "name": "to",
          "type": "address"
        },
        {
          "internalType": "uint256",
          "name": "amount",
          "type": "uint256"
        }
      ],
      "name": "transfer",
      "outputs": [
        {
          "internalType": "bool",
          "name": "",
          "type": "bool"
        }
      ],
      "stateMutability": "nonpayable",
      "type": "function"
    },
    {
      "inputs": [
        {
          "internalType": "address",
          "name": "owner",
          "type": "address"
        }
      ],
      "name": "balanceOf",
      "outputs": [
        {
          "internalType": "uint256",
          "name": "balance",
          "type": "uint256"
        }
      ],
      "stateMutability": "view",
      "type": "function",
      "constant": true
    },
    {
      "inputs": [
        {
          "internalType": "address",
          "name": "from",
          "type": "address"
        },
        {
          "internalType": "address",
          "name": "to",
          "type": "address"
        },
        {
          "internalType": "uint256",
          "name": "amount",
          "type": "uint256"
        }
      ],
      "name": "transferFrom",
      "outputs": [
        {
          "internalType": "bool",
          "name": "",
          "type": "bool"
        }
      ],
      "stateMutability": "nonpayable",
      "type": "function"
    },
    {
      "inputs": [
        {
          "internalType": "address",
          "name": "spender",
          "type": "address"
        },
        {
          "internalType": "uint256",
          "name": "amount",
          "type": "uint256"
        }
      ],
      "name": "approve",
      "outputs": [
        {
          "internalType": "bool",
          "name": "",
          "type": "bool"
        }
      ],
      "stateMutability": "nonpayable",
      "type": "function"
    },
    {
      "inputs": [
        {
          "internalType": "address",
          "name": "owner",
          "type": "address"
        },
        {
          "internalType": "address",
          "name": "spender",
          "type": "address"
        }
      ],
      "name": "allowance",
      "outputs": [
        {
          "internalType": "uint256",
          "name": "",
          "type": "uint256"
        }
      ],
      "stateMutability": "view",
      "type": "function",
      "constant": true
    },
    {
      "inputs": [
        {
          "internalType": "uint256",
          "name": "value",
          "type": "uint256"
        }
      ],
      "name": "burn",
      "outputs": [],
      "stateMutability": "nonpayable",
      "type": "function"
    },
    {
      "inputs": [
        {
          "internalType": "address",
          "name": "user",
          "type": "address"
        },
        {
          "internalType": "uint256",
          "name": "value",
          "type": "uint256"
        }
      ],
      "name": "mint",
      "outputs": [],
      "stateMutability": "nonpayable",
      "type": "function"
    },
    {
      "inputs": [
        {
          "internalType": "address",
          "name": "newTeam",
          "type": "address"
        }
      ],
      "name": "changeTeamAccount",
      "outputs": [],
      "stateMutability": "nonpayable",
      "type": "function"
    },
    {
      "inputs": [
        {
          "internalType": "address",
          "name": "zeroAddress",
          "type": "address"
        }
      ],
      "name": "abandonOwnership",
      "outputs": [],
      "stateMutability": "nonpayable",
      "type": "function"
    }
  ],
  "bytecode": "0x608060405234801561001057600080fd5b50611553806100206000396000f3fe608060405234801561001057600080fd5b50600436106101425760003560e01c80634e71e0c8116100b857806395d89b411161007c57806395d89b41146102bd578063a9059cbb146102c5578063b4c50ff4146102d8578063dd62ed3e146102eb578063e59850f714610324578063f2fde38b1461032d57600080fd5b80634e71e0c81461025d57806370a08231146102655780638456db151461028e57806385f2aef2146102a1578063870c66d6146102b457600080fd5b806323b872dd1161010a57806323b872dd146101df578063313ce567146101f25780633a625ee61461021157806340c10f191461022457806342966c68146102375780634ca608251461024a57600080fd5b806306fdde0314610147578063095ea7b3146101655780630d0092971461018857806316048bc41461019d57806318160ddd146101c8575b600080fd5b61014f610340565b60405161015c9190611087565b60405180910390f35b6101786101733660046110f1565b6103ce565b604051901515815260200161015c565b61019b61019636600461111b565b61043b565b005b6000546101b0906001600160a01b031681565b6040516001600160a01b03909116815260200161015c565b6101d160055481565b60405190815260200161015c565b6101786101ed366004611136565b6104c3565b6003546101ff9060ff1681565b60405160ff909116815260200161015c565b61019b61021f36600461111b565b610594565b61019b6102323660046110f1565b61066f565b61019b610245366004611172565b610783565b61019b61025836600461122e565b61086d565b61019b6109bf565b6101d161027336600461111b565b6001600160a01b031660009081526009602052604090205490565b6001546101b0906001600160a01b031681565b6008546101b0906001600160a01b031681565b6101d160075481565b61014f610a6d565b6101786102d33660046110f1565b610a7a565b61019b6102e636600461111b565b610a90565b6101d16102f93660046112e9565b6001600160a01b039182166000908152600a6020908152604080832093909416825291909152205490565b6101d160065481565b61019b61033b36600461111b565b610b4f565b6002805461034d9061131c565b80601f01602080910402602001604051908101604052809291908181526020018280546103799061131c565b80156103c65780601f1061039b576101008083540402835291602001916103c6565b820191906000526020600020905b8154815290600101906020018083116103a957829003601f168201915b505050505081565b336000818152600a602090815260408083206001600160a01b038716808552925280832085905551919290917f8c5be1e5ebec7d5bd14f71427d1e84f3dd0314c0f7b2291e5b200ac8c7c3b925906104299086815260200190565b60405180910390a35060015b92915050565b600154600160a01b900460ff161561048d5760405162461bcd60e51b815260206004820152601060248201526f1113d113d7d25392551250531256915160821b60448201526064015b60405180910390fd5b6001805460ff60a01b1916600160a01b179055600080546001600160a01b039092166001600160a01b0319909216919091179055565b6001600160a01b0383166000908152600a6020908152604080832033845290915281205482111561052d5760405162461bcd60e51b815260206004820152601460248201527308298989eae829c868abe9c9ea8be8a9c9eaa8e960631b6044820152606401610484565b610538848484610bd4565b6001600160a01b0384166000908152600a602090815260408083203384529091529020546105669083610f3d565b6001600160a01b0385166000908152600a602090815260408083203384529091529020555060019392505050565b6000546001600160a01b031633146105be5760405162461bcd60e51b815260040161048490611356565b6000600754116106065760405162461bcd60e51b81526020600482015260136024820152722727aa2faa2920a222afa322a2afaa27a5a2a760691b6044820152606401610484565b600854604080516001600160a01b03928316815291831660208301527f777d534c56e5409475a0daf453d4062d4d63f108acc530af91f101587cc91adc910160405180910390a1600880546001600160a01b0319166001600160a01b0392909216919091179055565b6000546001600160a01b031633146106995760405162461bcd60e51b815260040161048490611356565b6000546001600160a01b038381169116146106c65760405162461bcd60e51b815260040161048490611356565b6001600160a01b0382166000908152600960205260409020546106e99082610f8c565b6001600160a01b03831660009081526009602052604090205560055461070f9082610f8c565b6005556040518181526001600160a01b038316907f0f6798a560793a54c3bcfe86a93cde1e73087d944c0ea20544137d41213968859060200160405180910390a26040518181526001600160a01b038316906000906000805160206114fe8339815191529060200160405180910390a35050565b336000908152600960205260409020548111156107d55760405162461bcd60e51b815260206004820152601060248201526f0ac8298aa8abe9c9ea8be8a9c9eaa8e960831b6044820152606401610484565b336000908152600960205260409020546107ef9082610f3d565b3360009081526009602052604090205560055461080c9082610f3d565b60055560405181815233907fcc16f5dbb4873280815c1ee09dbd06736cffcc184412cf7a71a0fdb75d397ca59060200160405180910390a260405181815260009033906000805160206114fe8339815191529060200160405180910390a350565b6108768861043b565b600261088287826113c8565b50600461088f86826113c8565b506003805460ff191660ff861617905560058790556001600160a01b03881660009081526009602052604090208790556113888311156109115760405162461bcd60e51b815260206004820152601860248201527f54524144455f4255524e5f524154494f5f494e56414c494400000000000000006044820152606401610484565b6113888211156109635760405162461bcd60e51b815260206004820152601760248201527f54524144455f4645455f524154494f5f494e56414c49440000000000000000006044820152606401610484565b60068390556007829055600880546001600160a01b0319166001600160a01b0383811691909117909155604051888152908916906000906000805160206114fe8339815191529060200160405180910390a35050505050505050565b6001546001600160a01b03163314610a095760405162461bcd60e51b815260206004820152600d60248201526c494e56414c49445f434c41494d60981b6044820152606401610484565b600154600080546040516001600160a01b0393841693909116917f8be0079c531659141344cd1fd0a4f28419497f9722a3daafe3b4186f6b6457e091a360018054600080546001600160a01b03199081166001600160a01b03841617909155169055565b6004805461034d9061131c565b6000610a87338484610bd4565b50600192915050565b6000546001600160a01b03163314610aba5760405162461bcd60e51b815260040161048490611356565b6001600160a01b03811615610b045760405162461bcd60e51b815260206004820152601060248201526f4e4f545f5a45524f5f4144445245535360801b6044820152606401610484565b600080546040516001600160a01b03909116907f8be0079c531659141344cd1fd0a4f28419497f9722a3daafe3b4186f6b6457e0908390a350600080546001600160a01b0319169055565b6000546001600160a01b03163314610b795760405162461bcd60e51b815260040161048490611356565b600080546040516001600160a01b03808516939216917fdcf55418cee3220104fef63f979ff3c4097ad240c0c43dcb33ce837748983e6291a3600180546001600160a01b0319166001600160a01b0392909216919091179055565b6001600160a01b038316610c385760405162461bcd60e51b815260206004820152602560248201527f45524332303a207472616e736665722066726f6d20746865207a65726f206164604482015264647265737360d81b6064820152608401610484565b6001600160a01b038216610c9a5760405162461bcd60e51b815260206004820152602360248201527f45524332303a207472616e7366657220746f20746865207a65726f206164647260448201526265737360e81b6064820152608401610484565b6001600160a01b038316600090815260096020526040902054811115610d115760405162461bcd60e51b815260206004820152602660248201527f45524332303a207472616e7366657220616d6f756e7420657863656564732062604482015265616c616e636560d01b6064820152608401610484565b6001600160a01b038316600090815260096020526040902054610d349082610f3d565b6001600160a01b038416600090815260096020526040812091909155600654819015610e1657610d7b612710610d7560065486610fd790919063ffffffff16565b9061103b565b6000805260096020527fec8156718a8372b1db44bb411437d0870f3e3790d4a08526d024ce1b0b668f6b54909250610db39083610f8c565b600080805260096020527fec8156718a8372b1db44bb411437d0870f3e3790d4a08526d024ce1b0b668f6b919091556040516001600160a01b038716906000805160206114fe83398151915290610e0d9086815260200190565b60405180910390a35b60075415610eaf57610e39612710610d7560075486610fd790919063ffffffff16565b6008546001600160a01b0316600090815260096020526040902054909150610e619082610f8c565b600880546001600160a01b03908116600090815260096020908152604091829020949094559154915184815291811692908816916000805160206114fe833981519152910160405180910390a35b6000610ec582610ebf8686610f3d565b90610f3d565b6001600160a01b038616600090815260096020526040902054909150610eeb9082610f8c565b6001600160a01b0380871660008181526009602052604090819020939093559151908816906000805160206114fe83398151915290610f2d9085815260200190565b60405180910390a3505050505050565b600082821115610f7b5760405162461bcd60e51b815260206004820152600960248201526829aaa12fa2a92927a960b91b6044820152606401610484565b610f85828461149e565b9392505050565b600080610f9983856114b1565b905083811015610f855760405162461bcd60e51b815260206004820152600960248201526820a2222fa2a92927a960b91b6044820152606401610484565b600082600003610fe957506000610435565b6000610ff583856114c4565b90508261100285836114db565b14610f855760405162461bcd60e51b815260206004820152600960248201526826aaa62fa2a92927a960b91b6044820152606401610484565b600080821161107d5760405162461bcd60e51b815260206004820152600e60248201526d2224ab24a224a723afa2a92927a960911b6044820152606401610484565b610f8582846114db565b600060208083528351808285015260005b818110156110b457858101830151858201604001528201611098565b506000604082860101526040601f19601f8301168501019250505092915050565b80356001600160a01b03811681146110ec57600080fd5b919050565b6000806040838503121561110457600080fd5b61110d836110d5565b946020939093013593505050565b60006020828403121561112d57600080fd5b610f85826110d5565b60008060006060848603121561114b57600080fd5b611154846110d5565b9250611162602085016110d5565b9150604084013590509250925092565b60006020828403121561118457600080fd5b5035919050565b634e487b7160e01b600052604160045260246000fd5b600082601f8301126111b257600080fd5b813567ffffffffffffffff808211156111cd576111cd61118b565b604051601f8301601f19908116603f011681019082821181831017156111f5576111f561118b565b8160405283815286602085880101111561120e57600080fd5b836020870160208301376000602085830101528094505050505092915050565b600080600080600080600080610100898b03121561124b57600080fd5b611254896110d5565b975060208901359650604089013567ffffffffffffffff8082111561127857600080fd5b6112848c838d016111a1565b975060608b013591508082111561129a57600080fd5b506112a78b828c016111a1565b955050608089013560ff811681146112be57600080fd5b935060a0890135925060c089013591506112da60e08a016110d5565b90509295985092959890939650565b600080604083850312156112fc57600080fd5b611305836110d5565b9150611313602084016110d5565b90509250929050565b600181811c9082168061133057607f821691505b60208210810361135057634e487b7160e01b600052602260045260246000fd5b50919050565b6020808252600990820152682727aa2fa7aba722a960b91b604082015260600190565b601f8211156113c357600081815260208120601f850160051c810160208610156113a05750805b601f850160051c820191505b818110156113bf578281556001016113ac565b5050505b505050565b815167ffffffffffffffff8111156113e2576113e261118b565b6113f6816113f0845461131c565b84611379565b602080601f83116001811461142b57600084156114135750858301515b600019600386901b1c1916600185901b1785556113bf565b600085815260208120601f198616915b8281101561145a5788860151825594840194600190910190840161143b565b50858210156114785787850151600019600388901b60f8161c191681555b5050505050600190811b01905550565b634e487b7160e01b600052601160045260246000fd5b8181038181111561043557610435611488565b8082018082111561043557610435611488565b808202811582820484141761043557610435611488565b6000826114f857634e487b7160e01b600052601260045260246000fd5b50049056feddf252ad1be2c89b69c2b068fc378daa952ba7f163c4a11628f55a4df523b3efa2646970667358221220aa7aeea5ab505f55aa9302ee5fe6944c7e994e46affc1ca2d838f16e80a82f8e64736f6c63430008120033",
  "immutableReferences": {},
  "source": "// SPDX-License-Identifier: MIT\npragma solidity ^0.8.18;\n\nimport \"./lib/SafeMath.sol\";\nimport \"./lib/InitializableOwnable.sol\";\n\ncontract CustomMintableERC20 is InitializableOwnable {\n    using SafeMath for uint256;\n\n    string public name;\n    uint8 public decimals;\n    string public symbol;\n    uint256 public totalSupply;\n\n    uint256 public tradeBurnRatio;\n    uint256 public tradeFeeRatio;\n    address public team;\n\n    mapping(address => uint256) balances;\n    mapping(address => mapping(address => uint256)) internal allowed;\n\n    event Transfer(address indexed from, address indexed to, uint256 amount);\n    event Approval(address indexed owner, address indexed spender, uint256 amount);\n    event Mint(address indexed user, uint256 value);\n    event Burn(address indexed user, uint256 value);\n    event ChangeTeam(address oldTeam, address newTeam);\n\n    function init(\n        address _creator,\n        uint256 _initSupply,\n        string memory _name,\n        string memory _symbol,\n        uint8 _decimals,\n        uint256 _tradeBurnRatio,\n        uint256 _tradeFeeRatio,\n        address _team\n    ) public {\n        initOwner(_creator);\n        name = _name;\n        symbol = _symbol;\n        decimals = _decimals;\n        totalSupply = _initSupply;\n        balances[_creator] = _initSupply;\n        require(_tradeBurnRatio >= 0 && _tradeBurnRatio <= 5000, \"TRADE_BURN_RATIO_INVALID\");\n        require(_tradeFeeRatio >= 0 && _tradeFeeRatio <= 5000, \"TRADE_FEE_RATIO_INVALID\");\n        tradeBurnRatio = _tradeBurnRatio;\n        tradeFeeRatio = _tradeFeeRatio;\n        team = _team;\n        emit Transfer(address(0), _creator, _initSupply);\n    }\n\n    function transfer(address to, uint256 amount) public returns (bool) {\n        _transfer(msg.sender,to,amount);\n        return true;\n    }\n\n    function balanceOf(address owner) public view returns (uint256 balance) {\n        return balances[owner];\n    }\n\n    function transferFrom(\n        address from,\n        address to,\n        uint256 amount\n    ) public returns (bool) {\n        require(amount <= allowed[from][msg.sender], \"ALLOWANCE_NOT_ENOUGH\");\n        _transfer(from,to,amount);\n        allowed[from][msg.sender] = allowed[from][msg.sender].sub(amount);\n        return true;\n    }\n\n    function approve(address spender, uint256 amount) public returns (bool) {\n        allowed[msg.sender][spender] = amount;\n        emit Approval(msg.sender, spender, amount);\n        return true;\n    }\n\n    function allowance(address owner, address spender) public view returns (uint256) {\n        return allowed[owner][spender];\n    }\n\n\n    function _transfer(\n        address sender,\n        address recipient,\n        uint256 amount\n    ) internal virtual {\n        require(sender != address(0), \"ERC20: transfer from the zero address\");\n        require(recipient != address(0), \"ERC20: transfer to the zero address\");\n        require(balances[sender] >= amount, \"ERC20: transfer amount exceeds balance\");\n\n        balances[sender] = balances[sender].sub(amount);\n\n        uint256 burnAmount;\n        uint256 feeAmount;\n        if(tradeBurnRatio > 0) {\n            burnAmount = amount.mul(tradeBurnRatio).div(10000);\n            balances[address(0)] = balances[address(0)].add(burnAmount);\n            emit Transfer(sender, address(0), burnAmount);\n        }\n\n        if(tradeFeeRatio > 0) {\n            feeAmount = amount.mul(tradeFeeRatio).div(10000);\n            balances[team] = balances[team].add(feeAmount);\n            emit Transfer(sender, team, feeAmount);\n        }\n        \n        uint256 receiveAmount = amount.sub(burnAmount).sub(feeAmount);\n        balances[recipient] = balances[recipient].add(receiveAmount);\n\n        emit Transfer(sender, recipient, receiveAmount);\n    }\n\n    function burn(uint256 value) external {\n        require(balances[msg.sender] >= value, \"VALUE_NOT_ENOUGH\");\n\n        balances[msg.sender] = balances[msg.sender].sub(value);\n        totalSupply = totalSupply.sub(value);\n        emit Burn(msg.sender, value);\n        emit Transfer(msg.sender, address(0), value);\n    }\n\n    //=================== Ownable ======================\n    function mint(address user, uint256 value) external onlyOwner {\n        require(user == _OWNER_, \"NOT_OWNER\");\n        \n        balances[user] = balances[user].add(value);\n        totalSupply = totalSupply.add(value);\n        emit Mint(user, value);\n        emit Transfer(address(0), user, value);\n    }\n\n    function changeTeamAccount(address newTeam) external onlyOwner {\n        require(tradeFeeRatio > 0, \"NOT_TRADE_FEE_TOKEN\");\n        emit ChangeTeam(team,newTeam);\n        team = newTeam;\n    }\n\n    function abandonOwnership(address zeroAddress) external onlyOwner {\n        require(zeroAddress == address(0), \"NOT_ZERO_ADDRESS\");\n        emit OwnershipTransferred(_OWNER_, address(0));\n        _OWNER_ = address(0);\n    }\n}",
  "sourcePath": "/home/richard/EVM_Courses/Truffle_Web_ERC20/truffle/contracts/CustomMintableERC20.sol",
  "compiler": {
    "name": "solc",
    "version": "0.8.18+commit.87f61d96.Emscripten.clang"
  },
  "schemaVersion": "3.4.13",
  "updatedAt": "2023-05-02T05:49:03.325Z",
  "networkType": "ethereum",
  "devdoc": {
    "kind": "dev",
    "methods": {},
    "version": 1
  },
  "userdoc": {
    "kind": "user",
    "methods": {},
    "version": 1
  }
}