{
  "contractName": "InitializableERC20",
  "abi": [
    {
      "anonymous": false,
      "inputs": [
        {
          "indexed": true,
          "internalType": "address",
          "name": "owner",
          "type": "address"
        },
        {
          "indexed": true,
          "internalType": "address",
          "name": "spender",
          "type": "address"
        },
        {
          "indexed": false,
          "internalType": "uint256",
          "name": "amount",
          "type": "uint256"
        }
      ],
      "name": "Approval",
      "type": "event"
    },
    {
      "anonymous": false,
      "inputs": [
        {
          "indexed": true,
          "internalType": "address",
          "name": "from",
          "type": "address"
        },
        {
          "indexed": true,
          "internalType": "address",
          "name": "to",
          "type": "address"
        },
        {
          "indexed": false,
          "internalType": "uint256",
          "name": "amount",
          "type": "uint256"
        }
      ],
      "name": "Transfer",
      "type": "event"
    },
    {
      "inputs": [],
      "name": "decimals",
      "outputs": [
        {
          "internalType": "uint8",
          "name": "",
          "type": "uint8"
        }
      ],
      "stateMutability": "view",
      "type": "function"
    },
    {
      "inputs": [],
      "name": "initialized",
      "outputs": [
        {
          "internalType": "bool",
          "name": "",
          "type": "bool"
        }
      ],
      "stateMutability": "view",
      "type": "function"
    },
    {
      "inputs": [],
      "name": "name",
      "outputs": [
        {
          "internalType": "string",
          "name": "",
          "type": "string"
        }
      ],
      "stateMutability": "view",
      "type": "function"
    },
    {
      "inputs": [],
      "name": "symbol",
      "outputs": [
        {
          "internalType": "string",
          "name": "",
          "type": "string"
        }
      ],
      "stateMutability": "view",
      "type": "function"
    },
    {
      "inputs": [],
      "name": "totalSupply",
      "outputs": [
        {
          "internalType": "uint256",
          "name": "",
          "type": "uint256"
        }
      ],
      "stateMutability": "view",
      "type": "function"
    },
    {
      "inputs": [
        {
          "internalType": "address",
          "name": "_creator",
          "type": "address"
        },
        {
          "internalType": "uint256",
          "name": "_totalSupply",
          "type": "uint256"
        },
        {
          "internalType": "string",
          "name": "_name",
          "type": "string"
        },
        {
          "internalType": "string",
          "name": "_symbol",
          "type": "string"
        },
        {
          "internalType": "uint8",
          "name": "_decimals",
          "type": "uint8"
        }
      ],
      "name": "init",
      "outputs": [],
      "stateMutability": "nonpayable",
      "type": "function"
    },
    {
      "inputs": [
        {
          "internalType": "address",
          "name": "to",
          "type": "address"
        },
        {
          "internalType": "uint256",
          "name": "amount",
          "type": "uint256"
        }
      ],
      "name": "transfer",
      "outputs": [
        {
          "internalType": "bool",
          "name": "",
          "type": "bool"
        }
      ],
      "stateMutability": "nonpayable",
      "type": "function"
    },
    {
      "inputs": [
        {
          "internalType": "address",
          "name": "owner",
          "type": "address"
        }
      ],
      "name": "balanceOf",
      "outputs": [
        {
          "internalType": "uint256",
          "name": "balance",
          "type": "uint256"
        }
      ],
      "stateMutability": "view",
      "type": "function"
    },
    {
      "inputs": [
        {
          "internalType": "address",
          "name": "from",
          "type": "address"
        },
        {
          "internalType": "address",
          "name": "to",
          "type": "address"
        },
        {
          "internalType": "uint256",
          "name": "amount",
          "type": "uint256"
        }
      ],
      "name": "transferFrom",
      "outputs": [
        {
          "internalType": "bool",
          "name": "",
          "type": "bool"
        }
      ],
      "stateMutability": "nonpayable",
      "type": "function"
    },
    {
      "inputs": [
        {
          "internalType": "address",
          "name": "spender",
          "type": "address"
        },
        {
          "internalType": "uint256",
          "name": "amount",
          "type": "uint256"
        }
      ],
      "name": "approve",
      "outputs": [
        {
          "internalType": "bool",
          "name": "",
          "type": "bool"
        }
      ],
      "stateMutability": "nonpayable",
      "type": "function"
    },
    {
      "inputs": [
        {
          "internalType": "address",
          "name": "owner",
          "type": "address"
        },
        {
          "internalType": "address",
          "name": "spender",
          "type": "address"
        }
      ],
      "name": "allowance",
      "outputs": [
        {
          "internalType": "uint256",
          "name": "",
          "type": "uint256"
        }
      ],
      "stateMutability": "view",
      "type": "function"
    }
  ],
  "bytecode": "0x608060405234801561001057600080fd5b50610bbc806100206000396000f3fe608060405234801561001057600080fd5b50600436106100a95760003560e01c8063313ce56711610071578063313ce5671461012657806370a082311461014557806395d89b411461016e578063a9059cbb14610176578063dd62ed3e14610189578063fc90ef18146101c257600080fd5b806306fdde03146100ae578063095ea7b3146100cc578063158ef93e146100ef57806318160ddd146100fc57806323b872dd14610113575b600080fd5b6100b66101d7565b6040516100c391906107a7565b60405180910390f35b6100df6100da366004610811565b610265565b60405190151581526020016100c3565b6004546100df9060ff1681565b61010560035481565b6040519081526020016100c3565b6100df61012136600461083b565b6102d2565b6001546101339060ff1681565b60405160ff90911681526020016100c3565b610105610153366004610877565b6001600160a01b031660009081526005602052604090205490565b6100b66104e4565b6100df610184366004610811565b6104f1565b610105610197366004610892565b6001600160a01b03918216600090815260066020908152604080832093909416825291909152205490565b6101d56101d0366004610968565b61062a565b005b600080546101e490610a01565b80601f016020809104026020016040519081016040528092919081815260200182805461021090610a01565b801561025d5780601f106102325761010080835404028352916020019161025d565b820191906000526020600020905b81548152906001019060200180831161024057829003601f168201915b505050505081565b3360008181526006602090815260408083206001600160a01b038716808552925280832085905551919290917f8c5be1e5ebec7d5bd14f71427d1e84f3dd0314c0f7b2291e5b200ac8c7c3b925906102c09086815260200190565b60405180910390a35060015b92915050565b60006001600160a01b0383166103255760405162461bcd60e51b8152602060048201526013602482015272544f5f414444524553535f49535f454d50545960681b60448201526064015b60405180910390fd5b6001600160a01b0384166000908152600560205260409020548211156103825760405162461bcd60e51b81526020600482015260126024820152710848298829c868abe9c9ea8be8a9c9eaa8e960731b604482015260640161031c565b6001600160a01b03841660009081526006602090815260408083203384529091529020548211156103ec5760405162461bcd60e51b815260206004820152601460248201527308298989eae829c868abe9c9ea8be8a9c9eaa8e960631b604482015260640161031c565b6001600160a01b03841660009081526005602052604090205461040f908361070d565b6001600160a01b03808616600090815260056020526040808220939093559085168152205461043e908361075c565b6001600160a01b03808516600090815260056020908152604080832094909455918716815260068252828120338252909152205461047c908361070d565b6001600160a01b03858116600081815260066020908152604080832033845282529182902094909455518581529186169290917fddf252ad1be2c89b69c2b068fc378daa952ba7f163c4a11628f55a4df523b3ef910160405180910390a35060019392505050565b600280546101e490610a01565b60006001600160a01b03831661053f5760405162461bcd60e51b8152602060048201526013602482015272544f5f414444524553535f49535f454d50545960681b604482015260640161031c565b336000908152600560205260409020548211156105935760405162461bcd60e51b81526020600482015260126024820152710848298829c868abe9c9ea8be8a9c9eaa8e960731b604482015260640161031c565b336000908152600560205260409020546105ad908361070d565b33600090815260056020526040808220929092556001600160a01b038516815220546105d9908361075c565b6001600160a01b0384166000818152600560205260409081902092909255905133907fddf252ad1be2c89b69c2b068fc378daa952ba7f163c4a11628f55a4df523b3ef906102c09086815260200190565b60045460ff16156106715760405162461bcd60e51b81526020600482015260116024820152701513d2d15397d253925512505312569151607a1b604482015260640161031c565b6004805460ff1916600117905560038490556001600160a01b03851660009081526005602052604081208590556106a88482610a8a565b5060026106b58382610a8a565b506001805460ff191660ff83161790556040518481526001600160a01b038616906000907fddf252ad1be2c89b69c2b068fc378daa952ba7f163c4a11628f55a4df523b3ef9060200160405180910390a35050505050565b60008282111561074b5760405162461bcd60e51b815260206004820152600960248201526829aaa12fa2a92927a960b91b604482015260640161031c565b6107558284610b60565b9392505050565b6000806107698385610b73565b9050838110156107555760405162461bcd60e51b815260206004820152600960248201526820a2222fa2a92927a960b91b604482015260640161031c565b600060208083528351808285015260005b818110156107d4578581018301518582016040015282016107b8565b506000604082860101526040601f19601f8301168501019250505092915050565b80356001600160a01b038116811461080c57600080fd5b919050565b6000806040838503121561082457600080fd5b61082d836107f5565b946020939093013593505050565b60008060006060848603121561085057600080fd5b610859846107f5565b9250610867602085016107f5565b9150604084013590509250925092565b60006020828403121561088957600080fd5b610755826107f5565b600080604083850312156108a557600080fd5b6108ae836107f5565b91506108bc602084016107f5565b90509250929050565b634e487b7160e01b600052604160045260246000fd5b600082601f8301126108ec57600080fd5b813567ffffffffffffffff80821115610907576109076108c5565b604051601f8301601f19908116603f0116810190828211818310171561092f5761092f6108c5565b8160405283815286602085880101111561094857600080fd5b836020870160208301376000602085830101528094505050505092915050565b600080600080600060a0868803121561098057600080fd5b610989866107f5565b945060208601359350604086013567ffffffffffffffff808211156109ad57600080fd5b6109b989838a016108db565b945060608801359150808211156109cf57600080fd5b506109dc888289016108db565b925050608086013560ff811681146109f357600080fd5b809150509295509295909350565b600181811c90821680610a1557607f821691505b602082108103610a3557634e487b7160e01b600052602260045260246000fd5b50919050565b601f821115610a8557600081815260208120601f850160051c81016020861015610a625750805b601f850160051c820191505b81811015610a8157828155600101610a6e565b5050505b505050565b815167ffffffffffffffff811115610aa457610aa46108c5565b610ab881610ab28454610a01565b84610a3b565b602080601f831160018114610aed5760008415610ad55750858301515b600019600386901b1c1916600185901b178555610a81565b600085815260208120601f198616915b82811015610b1c57888601518255948401946001909101908401610afd565b5085821015610b3a5787850151600019600388901b60f8161c191681555b5050505050600190811b01905550565b634e487b7160e01b600052601160045260246000fd5b818103818111156102cc576102cc610b4a565b808201808211156102cc576102cc610b4a56fea264697066735822122011c325771ce28411ef37062ee68192c1be15d380e09e1bb72c38c770bf8cae4064736f6c63430008120033",
  "immutableReferences": {},
  "source": "// SPDX-License-Identifier: MIT\npragma solidity ^0.8.18;\n\nimport \"./lib/SafeMath.sol\";\n\ncontract InitializableERC20 {\n    using SafeMath for uint256;\n\n    string public name;\n    uint8 public decimals;\n    string public symbol;\n    uint256 public totalSupply;\n\n    bool public initialized;\n\n    mapping(address => uint256) balances;\n    mapping(address => mapping(address => uint256)) internal allowed;\n\n    event Transfer(address indexed from, address indexed to, uint256 amount);\n    event Approval(address indexed owner, address indexed spender, uint256 amount);\n\n    function init(\n        address _creator,\n        uint256 _totalSupply,\n        string memory _name,\n        string memory _symbol,\n        uint8 _decimals\n    ) public {\n        require(!initialized, \"TOKEN_INITIALIZED\");\n        initialized = true;\n        totalSupply = _totalSupply;\n        balances[_creator] = _totalSupply;\n        name = _name;\n        symbol = _symbol;\n        decimals = _decimals;\n        emit Transfer(address(0), _creator, _totalSupply);\n    }\n\n    function transfer(address to, uint256 amount) public returns (bool) {\n        require(to != address(0), \"TO_ADDRESS_IS_EMPTY\");\n        require(amount <= balances[msg.sender], \"BALANCE_NOT_ENOUGH\");\n\n        balances[msg.sender] = balances[msg.sender].sub(amount);\n        balances[to] = balances[to].add(amount);\n        emit Transfer(msg.sender, to, amount);\n        return true;\n    }\n\n    function balanceOf(address owner) public view returns (uint256 balance) {\n        return balances[owner];\n    }\n\n    function transferFrom(\n        address from,\n        address to,\n        uint256 amount\n    ) public returns (bool) {\n        require(to != address(0), \"TO_ADDRESS_IS_EMPTY\");\n        require(amount <= balances[from], \"BALANCE_NOT_ENOUGH\");\n        require(amount <= allowed[from][msg.sender], \"ALLOWANCE_NOT_ENOUGH\");\n\n        balances[from] = balances[from].sub(amount);\n        balances[to] = balances[to].add(amount);\n        allowed[from][msg.sender] = allowed[from][msg.sender].sub(amount);\n        emit Transfer(from, to, amount);\n        return true;\n    }\n\n    function approve(address spender, uint256 amount) public returns (bool) {\n        allowed[msg.sender][spender] = amount;\n        emit Approval(msg.sender, spender, amount);\n        return true;\n    }\n\n    function allowance(address owner, address spender) public view returns (uint256) {\n        return allowed[owner][spender];\n    }\n}",
  "sourcePath": "/home/richard/EVM_Courses/Truffle_Web_ERC20/truffle/contracts/StdERC20.sol",
  "compiler": {
    "name": "solc",
    "version": "0.8.18+commit.87f61d96.Emscripten.clang"
  },
  "schemaVersion": "3.4.13",
  "updatedAt": "2023-05-02T05:53:38.889Z",
  "devdoc": {
    "kind": "dev",
    "methods": {},
    "version": 1
  },
  "userdoc": {
    "kind": "user",
    "methods": {},
    "version": 1
  }
}