{
  "contractName": "InitializableOwnable",
  "abi": [
    {
      "anonymous": false,
      "inputs": [
        {
          "indexed": true,
          "internalType": "address",
          "name": "previousOwner",
          "type": "address"
        },
        {
          "indexed": true,
          "internalType": "address",
          "name": "newOwner",
          "type": "address"
        }
      ],
      "name": "OwnershipTransferPrepared",
      "type": "event"
    },
    {
      "anonymous": false,
      "inputs": [
        {
          "indexed": true,
          "internalType": "address",
          "name": "previousOwner",
          "type": "address"
        },
        {
          "indexed": true,
          "internalType": "address",
          "name": "newOwner",
          "type": "address"
        }
      ],
      "name": "OwnershipTransferred",
      "type": "event"
    },
    {
      "inputs": [],
      "name": "_NEW_OWNER_",
      "outputs": [
        {
          "internalType": "address",
          "name": "",
          "type": "address"
        }
      ],
      "stateMutability": "view",
      "type": "function"
    },
    {
      "inputs": [],
      "name": "_OWNER_",
      "outputs": [
        {
          "internalType": "address",
          "name": "",
          "type": "address"
        }
      ],
      "stateMutability": "view",
      "type": "function"
    },
    {
      "inputs": [
        {
          "internalType": "address",
          "name": "newOwner",
          "type": "address"
        }
      ],
      "name": "initOwner",
      "outputs": [],
      "stateMutability": "nonpayable",
      "type": "function"
    },
    {
      "inputs": [
        {
          "internalType": "address",
          "name": "newOwner",
          "type": "address"
        }
      ],
      "name": "transferOwnership",
      "outputs": [],
      "stateMutability": "nonpayable",
      "type": "function"
    },
    {
      "inputs": [],
      "name": "claimOwnership",
      "outputs": [],
      "stateMutability": "nonpayable",
      "type": "function"
    }
  ],
  "bytecode": "0x608060405234801561001057600080fd5b5061030b806100206000396000f3fe608060405234801561001057600080fd5b50600436106100575760003560e01c80630d0092971461005c57806316048bc4146100715780634e71e0c8146100a05780638456db15146100a8578063f2fde38b146100bb575b600080fd5b61006f61006a3660046102a5565b6100ce565b005b600054610084906001600160a01b031681565b6040516001600160a01b03909116815260200160405180910390f35b61006f610156565b600154610084906001600160a01b031681565b61006f6100c93660046102a5565b610204565b600154600160a01b900460ff16156101205760405162461bcd60e51b815260206004820152601060248201526f1113d113d7d25392551250531256915160821b60448201526064015b60405180910390fd5b6001805460ff60a01b1916600160a01b179055600080546001600160a01b039092166001600160a01b0319909216919091179055565b6001546001600160a01b031633146101a05760405162461bcd60e51b815260206004820152600d60248201526c494e56414c49445f434c41494d60981b6044820152606401610117565b600154600080546040516001600160a01b0393841693909116917f8be0079c531659141344cd1fd0a4f28419497f9722a3daafe3b4186f6b6457e091a360018054600080546001600160a01b03199081166001600160a01b03841617909155169055565b6000546001600160a01b0316331461024a5760405162461bcd60e51b81526020600482015260096024820152682727aa2fa7aba722a960b91b6044820152606401610117565b600080546040516001600160a01b03808516939216917fdcf55418cee3220104fef63f979ff3c4097ad240c0c43dcb33ce837748983e6291a3600180546001600160a01b0319166001600160a01b0392909216919091179055565b6000602082840312156102b757600080fd5b81356001600160a01b03811681146102ce57600080fd5b939250505056fea2646970667358221220059f618cab3ad829242f8d9317b211429c6e3417b72a097603b93717172791a364736f6c63430008120033",
  "immutableReferences": {},
  "source": "// SPDX-License-Identifier: Apache-2.0\npragma solidity ^0.8.18;\n\n /**\n * @title Ownable\n * @author DODO Breeder\n *\n * @notice Ownership related functions\n */\ncontract InitializableOwnable {\n    address public _OWNER_;\n    address public _NEW_OWNER_;\n    bool internal _INITIALIZED_;\n\n    // ============ Events ============\n\n    event OwnershipTransferPrepared(address indexed previousOwner, address indexed newOwner);\n\n    event OwnershipTransferred(address indexed previousOwner, address indexed newOwner);\n\n    // ============ Modifiers ============\n\n    modifier notInitialized() {\n        require(!_INITIALIZED_, \"DODO_INITIALIZED\");\n        _;\n    }\n\n    modifier onlyOwner() {\n        require(msg.sender == _OWNER_, \"NOT_OWNER\");\n        _;\n    }\n\n    // ============ Functions ============\n\n    function initOwner(address newOwner) public notInitialized {\n        _INITIALIZED_ = true;\n        _OWNER_ = newOwner;\n    }\n\n    function transferOwnership(address newOwner) public onlyOwner {\n        emit OwnershipTransferPrepared(_OWNER_, newOwner);\n        _NEW_OWNER_ = newOwner;\n    }\n\n    function claimOwnership() public {\n        require(msg.sender == _NEW_OWNER_, \"INVALID_CLAIM\");\n        emit OwnershipTransferred(_OWNER_, _NEW_OWNER_);\n        _OWNER_ = _NEW_OWNER_;\n        _NEW_OWNER_ = address(0);\n    }\n}\n",
  "sourcePath": "/home/richard/EVM_Courses/Truffle_Web_ERC20/truffle/contracts/lib/InitializableOwnable.sol",
  "compiler": {
    "name": "solc",
    "version": "0.8.18+commit.87f61d96.Emscripten.clang"
  },
  "schemaVersion": "3.4.13",
  "updatedAt": "2023-04-24T23:20:38.660Z",
  "devdoc": {
    "author": "DODO Breeder",
    "kind": "dev",
    "methods": {},
    "title": "Ownable",
    "version": 1
  },
  "userdoc": {
    "kind": "user",
    "methods": {},
    "notice": "Ownership related functions",
    "version": 1
  }
}